:020000040800F2
:10000000982E00209D010008A1260008C9220008A2
:100010009D26000803050008552F00080000000079
:10002000000000000000000000000000FB260008A7
:100030009908000800000000F9260008452800087B
:10004000B7010008B7010008B7010008B7010008B0
:10005000B7010008B7010008B7010008B7010008A0
:10006000B7010008B7010008B7010008B701000890
:10007000B7010008B7010008B7010008B701000880
:10008000B7010008B7010008B7010008B701000870
:10009000B7010008B7010008B7010008B701000860
:1000A000B7010008B7010008B7010008B701000850
:1000B000B7010008B7010008B7010008B701000840
:1000C000B7010008B7010008B7010008B701000830
:1000D000B7010008B7010008492F0008B701000860
:1000E000B7010008B7010008B7010008B701000810
:1000F000B7010008B7010008B7010008B701000800
:10010000B7010008B7010008B7010008B7010008EF
:10011000B7010008B7010008B7010008B7010008DF
:10012000B7010008B7010008B7010008B7010008CF
:10013000B7010008B7010008B7010008B7010008BF
:10014000B7010008B7010008B7010008B7010008AF
:10015000B7010008B7010008B7010008B70100089F
:10016000B7010008B7010008B7010008B70100088F
:10017000B7010008B7010008B7010008000000003F
:10018000B7010008B7010008DFF80CD000F046F90D
:1001900000480047A9350008982E002006488047EF
:1001A00006480047FEE7FEE7FEE7FEE7FEE7FEE75C
:1001B000FEE7FEE7FEE7FEE7B92800088901000830
:1001C0002DE9F05F0546002092469B46884606468C
:1001D000814640241BE0284641464746224600F01F
:1001E000D5F853465A46C01A914110D311461846C5
:1001F000224600F0BCF82D1A67EB01084F46224654
:100200000120002100F0B3F817EB00094E41201E39
:10021000A4F10104DFDC484631462A464346BDE8E6
:10022000F09F40EA01039B0703D009E008C9121FB1
:1002300008C0042AFAD203E011F8013B00F8013BA0
:10024000521EF9D27047D2B201E000F8012B491ECC
:10025000FBD270470022F6E710B513460A46044663
:100260001946FFF7F0FF204610BD421E12F8013F6D
:10027000002BFBD111F8013B02F8013B002BF9D117
:10028000704730B505462A460B4612F8010B13F8A5
:10029000014B08B1A042F8D01CB1002802D06D1C5F
:1002A000F1E7284630BD421C10F8011B0029FBD1A4
:1002B000801A7047034611F8012B00F8012B002A21
:1002C000F9D11846704730B505460020034600E0D6
:1002D0005B1C934205D2EC5CC85C201A01D1002C57
:1002E000F6D130BD70B50F4D00B92868002412E07A
:1002F0000A4602E09E4203D0521C1378002BF9D12B
:10030000DAB2224305D02BB124B1002100F8011B41
:1003100004E00446401C0678002EE9D128602046FF
:1003200070BD00007800002070B5064602F048FE5F
:10033000046805460A220021304600F037F82C6098
:1003400070BD30B50B46014600202022012409E093
:1003500021FA02F59D4205D303FA02F5491B04FA7E
:1003600002F52844151EA2F10102F1DC30BD202A5D
:1003700004DB203A00FA02F1002070479140C2F1FC
:10038000200320FA03F3194390407047202A04DB2E
:10039000203A21FA02F00021704721FA02F3D040FE
:1003A000C2F1200291400843194670472DE9F047F9
:1003B00091460F4680460446002614F8015B2DB195
:1003C00000F03EF80068405DC007F6D12B2D02D04A
:1003D0002D2D18D0641E4A463946204600F034F8C8
:1003E00027B13968A14201D1C7F8008071054FF0EB
:1003F00002040BD54042002803DD02F0E1FD046059
:10040000A007BDE8F08746F48066E4E70028F8DA44
:1004100002F0D6FD04606FF00040F2E7064C074D95
:1004200006E0E06840F0010394E8070098471034C4
:10043000AC42F6D3FFF7ACFEC04D0008E04D00081B
:1004400000487047604700082DE9F05F8246007859
:10045000002715468B460AF10104B946302801D021
:100460009DB113E014F8010B0127782803D0582818
:1004700001D045B10AE00DB1102D07D1002710259C
:1004800014F8010B02E0082500E00A250026B0461A
:100490000EE005FB080005FB06F1012701EB104605
:1004A0001FFA80F8B6F5803F00D3B94614F8010B67
:1004B000294600F018F80028EBDABBF1000F05D050
:1004C0000FB1641E00E05446CBF80040B9F1000FB4
:1004D00006D002F075FD02210160C81EBDE8F09F44
:1004E00048EA0640FAE73A2800D2303820F02002E5
:1004F000412A01D3A2F13700884201D34FF0FF30E7
:10050000704702F0CDF8000070B500244FF47A7502
:100510002A46214603A002F01DF9641C052CF7DBD6
:1005200070BD000041542B434950434C4F53453D4F
:100530000000000010B500218E2000F04DF90120D0
:1005400002F0F0FF802000F087F800F07F018020AB
:1005500000F042F980218E2000F03EF9BDE8104005
:10056000012002F0DFBF000010B586B000F072F984
:100570004FF4605000900120019002200D4C039038
:100580006946204600F0D6FD0021902000F024F9B5
:1005900000224FF40051204600F0B0FE0022E1148A
:1005A000204600F0ABFE0A2002F0BCFFFFF7C2FFBE
:1005B00006B010BD000402402DE9F05F254F15463E
:1005C000894604464FF4005B01225946384600F044
:1005D00095FE44F0010000F0D7F803F0ADF80024D8
:1005E0004FF4805A26E00020285506464FF4006854
:1005F000285D514640082855384600F073FE18B172
:10060000285D40F08000285501224146384600F020
:1006100075FE012002F086FF00224146384600F0B8
:100620006DFE012002F07EFF761CF6B2082EDFD3AD
:10063000641CE4B24C45D6D303F07CFC002259463E
:10064000384600F05BFE51463846BDE8F05F0022B8
:1006500000F054BE000402402DE9F0471F4E05464D
:100660004FF40059002401224946304600F046FE6E
:1006700045F0010000F088F803F05EF800254FF423
:100680008058F71464084146304600F02BFE08B14C
:1006900044F0800401223946304600F02FFE01204C
:1006A00002F040FF00223946304600F027FE0120CC
:1006B00002F038FF6D1CEDB2082DE3D303F03AFCD5
:1006C00000224946304600F019FE002241463046DD
:1006D00000F014FE2046BDE8F08700000004024050
:1006E0001CB504460020009001906A460821BE20F7
:1006F000FFF762FF9DF8060000F00F01000900EB14
:10070000800001EB400060709DF8040000F00F01D4
:10071000000900EB800001EB4000A0709DF8030091
:1007200000F00F01000900EB800001EB4000E070D9
:100730009DF8020000F00F01000900EB800001EBC2
:10074000400020719DF8010000F00F01000900EB4E
:10075000800001EB400060719DF8000000F00F0187
:10076000000900EB800001EB4000A0719DF805003E
:1007700000F00F01000900EB800001EB4000E07188
:100780009DF8070020701CBD2DE9F041114E00249A
:1007900005464FF48058F71405F0010241463046F3
:1007A00000F0ACFD01223946304600F0A7FD0120E3
:1007B00002F0B8FE00223946304600F09FFD0120CD
:1007C00002F0B0FE641C6D08E4B2082CE4D3BDE86E
:1007D000F0810000000402402DE9F0471C4E0D4658
:1007E00004464FF4005901224946304600F086FD88
:1007F0002046FFF7C9FF00244FF480585FEAE64720
:1008000005F001024146304600F078FD01223946EC
:10081000304600F073FD012002F084FE00223946CC
:10082000304600F06BFD012002F07CFE641C6D0878
:10083000E4B2082CE4D300224946304600F05EFDC5
:1008400041463046BDE8F047002200F057BD0000A9
:10085000000402400E48016821F0807101600168C7
:1008600041F0807101600B48016821F001010160D5
:10087000016841F0010101600021416000BF00BF3B
:1008800000BF406808B10020704701207047000099
:10089000FCED00E0001000E0704700002DE9F0479B
:1008A0003C4CDFF8F48000270122102140462764E9
:1008B00000F024FD4FF47A75294638A001F01EFFA0
:1008C000294638A001F01AFF0028F9D002F0FEFDF9
:1008D0004FF4FA76314637A001F010FF0028F9D026
:1008E00002F0F4FD20690025D8B16069C8B141F675
:1008F000583A4FF00109D4E90401524601F062FF71
:100900006D1C606340B1C4F8409002F027FF0022E4
:100910001021404600F0F2FC052D32D0606B00281B
:10092000E9D002F0D3FD3446214625A001F0E6FED1
:100930000028F9D002F0CAFD00F0ACFB02F0C6FDC1
:1009400021462AA001F0DAFE0028F9D002F0BEFD0F
:10095000214629A001F0D2FE0028F9D002F0B6FD10
:1009600021462AA001F0CAFE0028F9D002F0AEFD0F
:100970002A4803F0E3F8BDE8F04729A12AA000F0D7
:1009800021BA276403F078F801221021404600F0D4
:10099000B5FCC6E7000000200000024041542B5285
:1009A0005354000041542B43574155544F434F4E2D
:1009B0004E3D300041542B43574D4F44453D33008D
:1009C00041542B43575341505F4445463D224D65AA
:1009D000646963696E65426F78222C227465737452
:1009E00074657374222C352C3400000041542B4361
:1009F00049504D55583D310041542B4349505345C2
:100A0000525645523D312C383000000041542B43A2
:100A1000495053544F3D353030300000CC1D00203C
:100A2000736566657200000073657268617400002A
:100A300010B5144CE068FFF736FC014660644FF4D3
:100A4000967211A001F086FE4FF47A71E06801F011
:100A500055FE00BF02F03AFD64210FA001F04EFEEA
:100A60000028F7D002F032FD4FF4FA7402F02EFDA8
:100A700021460DA001F042FE0028F7D0BDE810404D
:100A800002F024BD0000002041542B43495053453F
:100A90004E443D302C00000041542B434950434C00
:100AA0004F53453D3500000041542B4349505345B9
:100AB000525645523D312C38300000002DE9F041AE
:100AC000AA4CAB4E0125E06B9EB000274FF47A781C
:100AD00030B1012210213046A56400F00FFC41E046
:100AE000A06A60B102F0F2FC276403F097F80122DB
:100AF0001021304600F002FCFFF7D0FE32E0E06A41
:100B000038B300222F21304600F0F8FBA068FFF731
:100B1000CAFB01466064642296A001F01BFEC82156
:100B2000A06801F0EBFD142196A001F0E7FD00287C
:100B3000F9D0404600F0ECFABFF34F8F95480168BA
:100B4000954A01F4E06111430160BFF34F8F00BF8C
:100B5000FDE7206B30B100220F21304600F0CEFBC4
:100B6000FFF766FFA06C01287ED16068FFF79BFB52
:100B70000146606464227FA001F0ECFDC82160683A
:100B800001F0BCFD14217FA001F0B8FD0028F9D0D0
:100B90004646404600F0BCFA80A18148FFF7A2FB20
:100BA0007EA10020FFF79EFB804601467DA002F05B
:100BB000D3F941467C48FFF77DFB78A10020FFF781
:100BC00091FB8046014677A002F0C6F9764841467F
:100BD0006430FFF76FFB71A10020FFF783FB8046B5
:100BE000014670A002F0B8F9604841464C30FFF76A
:100BF00061FB304600F08CFA5C4A6B494C32643140
:100C0000694802F0CDFE5948012268A14C30A76422
:100C1000FFF759FB664C4FF0010268B1534865A1DC
:100C20004C30FFF750FBE0B35048012262A14C303A
:100C3000FFF749FBB0B373E0DFF880814FF4006742
:100C40003946404600F05AFB3D2259490DA8FFF7AE
:100C5000E8FA14F83D0F8DF87100302211A96846AA
:100C60000C95FFF7DEFA00E07CE00DF1340C9CE817
:100C70000F0002F043FD304600F04AFA3D224C4995
:100C80000DA8FFF7CEFA20788DF87100302211A957
:100C900068460C95FFF7C5FA0DF1340C9CE80F007F
:100CA00001E008E012E002F01FFC00223946404655
:100CB00000F024FB34E03D223D490DA8FFF7B1FAD6
:100CC00014F83D0F8DF87100022509E03D223849E6
:100CD0000DA8FFF7A6FA14F83D0F8DF87100032553
:100CE000302211A968460C95FFF79BFA0DAF97E8E3
:100CF0000F0002F003FD304600F00AFA3D222C49B5
:100D00000DA8FFF78EFA20788DF87100302211A916
:100D100068460C95FFF785FA97E80F0002F0E4FBB0
:100D2000274D00244FF4FA770121284600F0DFFA1E
:100D3000384600F0EDF9641C082CF5DB01212C4647
:100D4000284600F0D4FA304600F0E2F900220121F2
:100D5000204600F0D3FA1EB01348BDE8F0410F382A
:100D600002F0ECBE1EB0BDE8F081000000000020E3
:100D70000000024041542B43495053454E443D30FE
:100D80002C00000041542B434950434C4F53453DE8
:100D9000350000000CED00E00400FA052D00000015
:100DA000380C002025730000DB1D002031000000FE
:100DB000E82900203200000033000000000C02404F
:100DC000000402402DE9F041A6B00B46024674A192
:100DD000684602F0D1F869468148FFF746FA42F2C8
:100DE000107180A001F08AFC7D48FFF75CFA884909
:100DF00064224864014687A001F0ACFC6421784875
:100E000001F07CFCFFF780FB86A18748FFF76AFAB8
:100E100084A10020FFF766FA010020D08348FFF785
:100E200049FA80A10020FFF75DFA010017D07F4842
:100E30003230FFF73FFA7BA10020FFF753FA0100A1
:100E40000DD07A486430FFF735FA76A10020FFF71D
:100E500049FA010003D062487538FFF72BFA74A1F4
:100E60007248FFF73FFA72A10020FFF73BFA70A12A
:100E70000020FFF737FA5A4C6DA1403C206000205B
:100E8000FFF730FA04F1100569A128600020FFF790
:100E900029FA04F1200666A130600020FFF722FA4B
:100EA00004F130084746C8F8000061A1A4F1990098
:100EB000FFF718FA5EA10020FFF714FA5CA10020EA
:100EC000FFF710FA60605AA10020FFF70BFA686084
:100ED00057A10020FFF706FA706055A10020FFF728
:100EE00001FA786052A1A4F16700FFF7FBF950A165
:100EF0000020FFF7F7F94EA10020FFF7F3F9A060FB
:100F00004BA10020FFF7EEF9A86049A10020FFF7F0
:100F1000E9F9B06046A10020FFF7E4F9B86044A108
:100F2000A4F13500FFF7DEF941A10020FFF7DAF95F
:100F30003FA10020FFF7D6F9E0603DA10020FFF7B8
:100F4000D1F9E8603AA10020FFF7CCF9F06038A1B0
:100F50000020FFF7C7F9F8605FF00007394654F842
:100F6000272034A001F0F8FF55F82720394637A094
:100F700001F0F2FF56F8272039463AA001F0ECFFC5
:100F800058F8272039463DA001F0E6FF40A001F0C7
:100F9000E3FF7F1C042FE1DB26B0BDE8F0810000F9
:100FA000474554202F72656164646174612E7068D6
:100FB000703F6E3D257326733D2573204854545071
:100FC0002F312E310D0A486F73743A2073657268A1
:100FD00061746573702E64782E616D0D0A0D0A00C0
:100FE000541F002041542B43495053544152543D07
:100FF000322C22544350222C22736572686174652E
:1010000073702E64782E616D222C38300000000041
:101010000000002041542B43495053454E443D327B
:101020002C0000003E3E000014120020491E00204B
:101030007C00000025642E4D65646963696E65203F
:101040004E616D653A25730A0000000025642E4D3F
:1010500065646963696E652054696D653A25730A34
:101060000000000025642E4D65646963696E65208B
:10107000537461743A25730A0000000025642E4DF4
:1010800065646963696E652050696E3A25730A006C
:101090000A0A000010B54FF47A710BA001F02EFB84
:1010A0000CA10D48FFF71EF90AA10020FFF71AF95D
:1010B0000446014609A001F04FFF224609A10A4853
:1010C00001F05AFF084810BD41542B434946535282
:1010D0000000000022000000F017002049503A25CF
:1010E000730A000025730000CC1D002090F8351015
:1010F000022903D08021416501207047052180F835
:1011000035100068016821F001010160002070477E
:1011100070B5044600F0F8F80546601C02D004489B
:101120000078044400F0F0F8401BA042FAD370BDF0
:10113000680000202DE9F84FDFF87CB100224FF065
:1011400001084FF0030A4FF00F090BF1040E00BF26
:101150000B6808FA02F42340A3426ED14D68022DB9
:1011600001D0122D0ED1D50800EB850CDCF82050F3
:101170005607F70E09FA07F6B5430E69BE402E432F
:10118000CCF82060066855000F790AFA05FC07F0D4
:10119000030726EA0C06AF40374307604E68012E6E
:1011A00005D0022E03D0112E01D0122E0ED186684A
:1011B000CF6826EA0C06AF40374387604668A643EF
:1011C0000C79C4F30014944034434460C6688C68BE
:1011D00026EA0C06AC403443C4604C68E40065D594
:1011E000364C256845F480452560246822F00305C7
:1011F00004F480440094324C2E19D6F80848950720
:101200002F0F09FA07F5AC432E4DA84201D1002556
:1012100024E02D4DA84201D101251FE02B4DA8420D
:1012200001D102251AE02A4DA84201D1032515E07B
:10123000284DA84202D1042510E037E0264DA842EF
:1012400001D105250AE0254DA84201D1062505E07A
:10125000234DA84201D1072500E00825BD402543C4
:10126000C6F80858DBF800405D464E689C43F6031C
:1012700000D51C432C60DEF8004075464E689C4348
:10128000B60300D51C432C600B4D08352C684E6806
:101290009C43F60200D51C432C60074D0C352C688E
:1012A0004E689C43B60200D51C432C60521C102A89
:1012B000FFF44EAFBDE8F88F003C014044380240D7
:1012C00000300140000002400004024000080240DB
:1012D000000C0240001002400014024000180240BE
:1012E000001C02400069084000D00120704742699C
:1012F00031EA020200D10904816170470AB18161BB
:1013000070470904FBE7000001488068704700004F
:101310006800002070B504001BD094F83D00002543
:1013200020B984F83C50204600F046F9242084F887
:101330003D002068016821F00101016000F0A8FA79
:101340004D4A6168914201D84C4900E04C498842BD
:1013500001D2012070BD4B492368B0FBF1F15E68FA
:1013600026F03F060E435E606368934206D94FF451
:10137000967359434FF47A73B1FBF3F12368491C18
:101380001E6A26F03F06314319626168914210D807
:101390004900401EB0FBF1F2521CC2F30B02042ABA
:1013A00001D2042022E0B0FBF1F0401CC0F30B009E
:1013B0001CE0A368F3B301EBC10202EB0116421E6D
:1013C000B2FBF6F2521C42F48042120549D093B3AC
:1013D00001EBC10202EB0111401EB0FBF1F0401C19
:1013E000C0F30B0040F4804040F400402168CA691B
:1013F0004CF6FF739A431043C861D4E907010843D0
:1014000021680A6822F0C00210430860D4E9030191
:1014100001432068826848F2FF339A431143816098
:10142000D4E9050108432168CA6822F0FF0210438D
:10143000C86001E00EE016E02068016841F001019B
:1014400001602564202084F83D00256384F83E5027
:10145000002070BD01EB4106421EB2FBF6F2521CA9
:10146000B3E70120C2E701EB4101401EB0FBF1F000
:10147000401CC0F30B00B7E7A086010080841E006B
:1014800000093D0040420F002DE9FF4F83B09A460E
:10149000DDE9119793460446DDF84080FFF734FFFD
:1014A000054694F83D0020287FD1192301224049A8
:1014B0002046009500F092FF002876D194F83C0079
:1014C000012872D0012084F83C0020680168C90717
:1014D00003D1016841F0010101602068016821F435
:1014E00000610160212084F83D00402084F83E0026
:1014F00000262664C4F82480A4F82A90608D2085F4
:101500002C48E062CDE9007553465A4620460499BE
:1015100000F0F4FE70B930E02A463946204600F06B
:10152000DCFF58B1206C042804D12068016841F424
:1015300000710160012007B0BDE8F08F606A21688A
:1015400000780861606A401C6062218D491E89B282
:101550002185628D521E628522685369DB435B07D9
:101560000BD469B100781061606A401C6062208D04
:10157000401E2085608D401E6085208D0028CBD1C7
:101580002A463946204600F003FF0028CAD154F805
:101590003D0B016841F400710160202004F81E0930
:1015A000E67766770020C6E7FFE70220C3E7000082
:1015B000020010000000FFFF10B586B004461421A1
:1015C0006846FEF747FE13492068884220D112483A
:1015D000016841F0020101600068694600F0020004
:1015E0000590C0200090122001900120029003205D
:1015F0000390042004900948FFF79CFD0648103032
:10160000016841F400110160006800F400100590C9
:1016100006B010BD005400403038024000040240C3
:101620000248816802781144816070476800002098
:101630000B4810B5016841F400710160016841F484
:1016400080610160016841F480710160032000F055
:101650006FF8002000F006F800F024F8002010BD1C
:10166000003C024070B50D4D04464FF47A71287865
:10167000B1FBF0F00A490968B1FBF0F000F0E8FABC
:1016800048B9102C07D200222146501E00F030F835
:1016900000206C6070BD012070BD0000680000205B
:1016A000740000200A4808B5016841F480410160D7
:1016B000006800F4804000900548001F016841F078
:1016C00080510160006800F08050009008BD00006B
:1016D00044380240002809DB00F01F02012191403C
:1016E0004009800000F1E020C0F8001170470000C0
:1016F000F0B40E4B1B680C46C3F30223C3F107057D
:10170000042D00D90425191D072901D2002300E06A
:10171000DB1E012606FA05F1491E214099409E4034
:10172000761E16403143F0BC01F03ABC0CED00E0EF
:10173000064900F0070208684FF6FF03184040EA28
:101740000220034A10430860704700000CED00E0DF
:101750000000FA052DE9F0470E46050065D0DFF8D8
:101760001481D8F80000F7B200F00F00B04207D2A1
:1017700088F80070D8F8000000F00F00B04254D193
:1017800028683D4C810712D5400703D5206840F4F6
:10179000E05020602878000703D5206840F46040BE
:1017A00020602068A96820F0F000084320602878B5
:1017B000C0072DD0304968680839012812D00228A6
:1017C00013D0032811D00968890700292DDA216870
:1017D00021F0030101432160FFF796FD814641F2AC
:1017E000883A0EE009688903EFE709688901ECE7A8
:1017F000FFF78AFDA0EB0901514502D90320BDE89E
:10180000F0872068696800F00C00B0EB810FEFD121
:10181000D8F80010404601F00F01B14207D9077017
:10182000006800F00F00B04201D00120E7E72878FF
:10183000400705D52068E96820F4E050084320609F
:101840002878000706D52068296920F4604040EA1E
:10185000C100206000F03CF82168084AC1F3031180
:10186000515CC840064908600020FFF7FBFE0020DD
:10187000C5E70000003C024008380240C4460008AA
:1018800074000020014800687047000074000020C8
:101890000448054900680968044AC1F38221515C83
:1018A000C84070477400002008380240D446000841
:1018B0000448054900680968044AC1F34231515C93
:1018C000C84070477400002008380240D446000821
:1018D000154810B5006810F00C02144813D01449D4
:1018E000042A0FD0082A0ED10F4C241F2268236827
:1018F00002F03F025B0207D52068C0F38810A0FB0E
:10190000010106E0084610BD2168C1F38811A1FB62
:1019100000010023FEF754FC2168C1F30141491C7A
:101920004900B0FBF1F010BD083802400024F4007B
:1019300040787D012DE9F84F050076D02878DFF852
:10194000F8B2BE4CC00749D0DBF800105846C1F3CE
:101950008101012908D00068C0F3810002280AD162
:10196000201D0068400206D52068800336D56868CF
:101970000028E2D032E06868B0F5803F10D0B0F5C2
:10198000A02F206810D020F480302060206820F440
:10199000802020606868A0B1FFF7B6FC06460CE026
:1019A000206840F48030F4E740F480202060F7E7BE
:1019B000FFF7AAFC801B642873D820688003F7D542
:1019C0000CE0FFF7A1FC064605E000BFFFF79CFC1A
:1019D000801B6428F0D820688003F7D42878DFF8CB
:1019E000608280074FF000093ED5DBF800105846B2
:1019F00011F00C0F09D00068C0F3810002280BD150
:101A00008D48001F0068400206D42068800715D565
:101A1000E868012809D111E0E868B8B10120C8F8E8
:101A20000000FFF771FC064605E002E1FFF76CFCE1
:101A3000801B0228C0D820688007F7D52068296954
:101A400020F0F80040EAC10020600DE0C8F80090E6
:101A5000FFF75AFC064604E0FFF756FC801B0228FD
:101A60001FD820688007F7D42878000722D5724E47
:101A7000744869696C3671B101210160FFF744FC5B
:101A8000074604E0FFF740FCC01B022809D8306875
:101A90008007F7D50EE0C0F80090FFF735FC074649
:101AA00005E083E0FFF730FCC01B02287ED83068D9
:101AB0008007F7D42878400768D5DFF87CA1002795
:101AC0000AF1380ADAF80000C0000BD4DAF8001086
:101AD00041F08051CAF80010DAF80000012700F048
:101AE00080500090584E3068C00510D4306840F4E3
:101AF00080703060FFF708FC009005E0FFF704FC01
:101B00000099401A022851D83068C005F6D54A4ECF
:101B1000A868683601280FD00528306810D020F05A
:101B200001003060306820F004003060A868B8B16F
:101B3000FFF7EAFB00900FE0306840F00100F4E7A7
:101B400040F004003060F7E7FFF7DEFB0099411A30
:101B500041F28830814264D830688007F4D50EE0C5
:101B6000FFF7D2FB009007E0FFF7CEFB0099411A88
:101B700041F28830814254D830688007F4D42FB1C4
:101B8000DAF8001021F08051CAF80010A869C0B33B
:101B9000DBF80010C1F3810102294AD0022848462F
:101BA00007D0C8F86000FFF7AFFB00E039E005465A
:101BB0003AE04746C8F86000FFF7A6FB064604E097
:101BC000FFF7A2FB801B02282BD820688001F7D4E6
:101BD000D5E907010843A96A1C4A490802EB0141FB
:101BE0006A6A41EA8211084395F82C1040EA0161C3
:101BF0001148001F016001203866FFF785FB05468C
:101C000005E014E0FFF780FB401B022809D820689C
:101C10008001F7D50BE000BFFFF776FB401B0228E1
:101C200002D90320BDE8F88F20688001F4D4002099
:101C3000F8E70120F6E700000838024000380240CB
:101C400000004742800E4742007000400000FFFF46
:101C500010B5401EB0F1807F01D3012010BD4FF0C0
:101C6000E02460610F21601701F09AF90020A06163
:101C700007202061002010BD10B590F83C20012AFB
:101C800022D0012280F83C20CA688C6822F440727D
:101C900022434C6822F4806222430C6822F40062E2
:101CA00022430C6922F4805222434C6922F40052F0
:101CB0002243C969002322F480420A4301684A642E
:101CC00080F83C30002010BD022010BD70B590F8A7
:101CD0003C20012A19D0012400F83C4F0222427016
:101CE00050F83C3C5A689D6822F070060A684968C2
:101CF000324325F0800529435A6050F83C2C91600E
:101D0000447000210170084670BD022070BD0000C3
:101D100010B586B0044614216846FEF79BFA0E49BA
:101D20002068884216D10D480021026842F0100256
:101D30000260006800F0100005904FF4D44000905D
:101D40000220CDE901010120CDE9031069460448D4
:101D5000FFF7F0F906B010BD000001403038024036
:101D60000010024070B5044690F83C0001280DD0E8
:101D7000012584F83C50022084F83D0042B1042A39
:101D80000AD0082A0CD00C2A11D10DE0022070BD17
:101D9000206800F02DFE0AE0206800F059FE06E001
:101DA000206800F08BFE02E0206800F0BBFE84F8A3
:101DB0003D50002084F83C0070BD10B5040003D0F5
:101DC00094F83D0010B107E0012010BD002084F818
:101DD0003C00204600F00CF8022084F83D00211D54
:101DE000206800F093FD012084F83D00002010BD24
:101DF000704770B5044690F83C000D4601280DD0A0
:101E0000012684F83C60022084F83D0042B1042A97
:101E100018D0082A2AD00C2A4DD139E0022070BDF2
:101E2000206800F0E5FD2068816941F008018161CA
:101E30002068816921F004018161206881692A6933
:101E4000114311E0206800F003FE2068816941F42D
:101E5000006181612068816921F48061816120686D
:101E600081692A6941EA0221816124E0206800F049
:101E700025FE2068C16941F00801C1612068C1697F
:101E800021F00401C1612068C1692A69114311E090
:101E9000206800F047FE2068C16941F40061C1611B
:101EA0002068C16921F48061C1612068C1692A6923
:101EB00041EA0221C16184F83D60002084F83C00C1
:101EC00070BD10B5040003D094F83D0010B107E0D8
:101ED000012010BD002084F83C00204600F00CF8E2
:101EE000022084F83D00211D206800F00FFD012034
:101EF00084F83D00002010BD08B5006806498842FE
:101F000008D10648016841F001010160006800F055
:101F10000100009008BD000000000140443802406C
:101F200010B504460068012200F054FD0B492068FA
:101F3000884202D00A49884203D1416C41F40041F1
:101F400041642068816801F00701062903D0016817
:101F500041F001010160002010BD000000000140BF
:101F6000000401407047000070B502680446106824
:101F7000D168536910F00F0F50D003F0010501F440
:101F8000907635435DD0C20705D0CA0503D5E26B14
:101F900042F00102E263420705D5DA0703D0E26BA3
:101FA00042F00202E263820705D5DA0703D0E26B52
:101FB00042F00402E263020705D5DA0703D0E26BC0
:101FC00042F00802E263E26B002A33D0800604D5B7
:101FD000880602D5204600F0E3FD20684069E16BE9
:101FE000C0F38010090700D428B3204600F0CAFDD2
:101FF0002068416949061AD5416921F040014161D3
:10200000606BA0B11B490165606BFFF76FF800289A
:1020100010D0606B016DBDE870400847830610D595
:102020008B060ED52046BDE8704000F0B9BD2046B5
:10203000FFF798FF70BD2046FFF794FF0020E06394
:1020400070BD030606D50B0604D52046BDE87040DA
:1020500000F048BF4006F3D54806F1D5D1682046C8
:1020600021F04001D160202184F8391000F02BF9D3
:1020700070BD0000752B000870B5040004D094F802
:102080003900002510B106E0012070BD84F83850F9
:10209000204600F023F8242084F839002068C16825
:1020A00021F40051C160204600F0C6FD206801699E
:1020B00021F4904101612068416921F02A014161C8
:1020C0002068C16841F40051C160E563202084F8B4
:1020D000390084F83A00002070BD000010B586B0C9
:1020E000044614216846FEF7B5F81749206888426F
:1020F00028D11648016841F400310160006800F4FD
:102100000030059011481038016841F0010101606C
:102110000068694600F0010005900C200090022044
:1021200001900120029003200390072004900848AA
:10213000FFF700F8002211462620FFF7D9FA2620E3
:10214000FFF7C8FA06B010BD004400404038024016
:102150000000024090F83A30202B22D1F9B1F2B1C0
:1021600090F83830012B1CD081628285C285002115
:10217000C163222280F83A2080F838100168CA68CA
:1021800042F48072CA6001684A6942F001024A6101
:102190000068C16841F02001C16000207047012043
:1021A000704702207047000070B5006822498842DD
:1021B0003BD1224C224D21780A2907D0E06940F218
:1021C000DC52904202DA2954401C2DE01DA11C482B
:1021D000FEF757F8A0621FA11948FEF752F8E06217
:1021E00020A11748FEF74DF8E06320A11448FEF740
:1021F00048F8A0631FA11248FEF743F8A061E16B05
:1022000019B10F4901F6B83007E0A16B11B10C49C3
:102210001A4802E018B10A491948FEF74BF8E1697B
:102220000020294401F8010CE061BDE87040012262
:1022300002491448FFF78EBF004400400000002010
:10224000800000205749464920444953434F4E4E91
:10225000454354002F726573657420485454502FC1
:10226000312E31002F73656E6400000053544149D4
:10227000500000002323232300000000F01700205B
:1022800014120020282A002090F83930202B18D171
:10229000A9B1A2B190F83830012B12D0016282842A
:1022A000C2840021C163212280F8392080F83810CF
:1022B0000068C16841F08001C160002070470120C2
:1022C000704702207047704700F0EAF901684A69D8
:1022D000D24352050FD46FF480624A61002140F866
:1022E000301F202242738173026942F004020261AE
:1022F0000173012070470020704700002DE9F8436A
:10230000044600680D46DDE90897016898461646C0
:1023100041F4807101604B4600224FF001112046CC
:10232000009700F05BF8E0B9216805F0FE00086155
:102330003B464A461549204600F084F888B9206893
:102340004169806900903A464946204600F0C5F848
:1023500050B1206C042804D12068016841F4007158
:1023600001600120BDE8F883F5B2B8F1010F09D092
:102370002168300A08613A464946204600F0ADF827
:102380000028E6D1206805610020EBE7020001008B
:1023900070B516460D4604460DE02046FFF796FF41
:1023A00008B1012070BD681C05D0FEF7ADFF801B91
:1023B000A84207D835B120684069C0434007ECD433
:1023C000002070BD002044F8300F20216173A073FD
:1023D000216941F0200121612073E2E72DE9F047F6
:1023E0001E4690460D460446C1F30747DDF820908F
:1023F00008E0701C06D0FEF787FFA0EB0900B04292
:102400000FD876B12068012F18D0806925EA000026
:102410000004000C14D000214145EAD00020BDE8A2
:10242000F087002044F8300F20216173A0732169E8
:1024300041F02001216120730120F0E74069E5E7C8
:102440000121E9E72DE9F0479A4691460E460446F8
:1024500000254FF02008C1F3074725E020684069B8
:10246000C043400514D42068016841F40071016044
:1024700021686FF480604861256384F83D8084F8AA
:102480003E50206C40F00400206484F83C501FE073
:10249000B9F1FF3F08D0FEF737FFA0EB0A0149452D
:1024A0000CD8B9F1000F09D02068012F13D0806932
:1024B00026EA00000004000C0BD0CFE744F8305FA0
:1024C00084F80D80A573206940F0200020612573F9
:1024D0000120BDE8F0874069EAE770B516460D4671
:1024E00004460DE02046FFF7F1FE08B1012070BD63
:1024F000681C05D0FEF708FF801BA84207D835B13D
:1025000020684069C0430006ECD4002070BD002064
:1025100044F8300F20216173A073216941F020013C
:1025200021612073E2E700002DE9F04186B014211B
:102530006846FDF78FFE2A480024016841F0040137
:102540000160016801F004010591016841F080011A
:102550000160016801F080010591016841F001010D
:102560000160016801F001010591016841F002017B
:102570000160016801F002010591016841F010015C
:102580000160016801F010010591016841F0080146
:1025900001600068134F00F008000590002201213F
:1025A0003846FEF7ABFEDFF840804FF4C04600220D
:1025B00031464046FEF7A2FE01250095CDE90154C3
:1025C000694638460394FEF7B5FD0096CDE90154FF
:1025D000694640460394FEF7ADFD06B0BDE8F081C4
:1025E0003038024000040240000C024010B592B0A6
:1025F00000240F941C2168461094FDF72BFE202127
:1026000007A8FDF727FE24482249016040F23F1148
:10261000C0E9011440F2E731C0E903144461846168
:10262000FFF74FFC1C48FFF7C8FB0F940FA91A488F
:102630001094FFF74BFB6020CDE900040294039453
:10264000049405940022694613480694FFF7D1FBD1
:10265000042269461048FFF7CCFB082269460E4861
:10266000FFF7C7FB0C2269460B480094FFF77AFB83
:102670000794089409944FF400500A94CDE90B4054
:1026800007A905480E94FFF7F7FA0348FFF740FB48
:1026900012B010BD00000140E829002000F000F851
:1026A000124C012211032046FEF728FE012251039D
:1026B0002046FEF723FE012291032046FEF71EFE70
:1026C0000122D1032046FEF719FE4FF4FA60FEF70F
:1026D0001FFDBFF34F8F06480168064A01F4E06111
:1026E00011430160BFF34F8F00BFFDE7000C0240B4
:1026F0000CED00E00400FA057047704770B50D4618
:1027000001460E48FDF7D6FD0DA10C48FDF7ADFDC5
:102710000A48FDF7C8FD0B4C401C08496064401C8A
:1027200082B20948FFF7B0FD08A10948FDF7A9FDED
:1027300060622846FEF7ECFC606A70BD5C06002013
:102740000D0A000000000020282A00204F4B000046
:102750008000002070B50C46014615461248FDF772
:10276000A9FD224611A1124800F006FC10490E48AE
:10277000FDF77BFD0FA10C48FDF777FD0A48FDF73B
:1027800092FD0B4C401C203C82B2606406490A4812
:10279000FFF77AFD09A10A48FDF773FD606228463C
:1027A000FEF7B6FC606A70BD5C0600202564000080
:1027B000200000200D0A0000282A00204F4B0000B6
:1027C0008000002070B50E460446154613A1164839
:1027D000FDF770FD21461448FDF747FD13A112488F
:1027E000FDF743FD31461048FDF73FFD10A10E48AF
:1027F000FDF73BFD0C48FDF756FD0E4C82B20A4931
:1028000060640D48FFF740FD0CA10D48FDF739FD50
:1028100060622846FEF77CFC606A70BD41542B4321
:10282000574A41503D2200005C060020222C220025
:10283000220D0A0000000020282A00204F4B000033
:1028400080000020FEF7ECBE10B592B03021684643
:10285000FDF700FD14210CA8FDF7FCFC1448002432
:10286000016841F080510160006800F080501190D3
:102870001048016841F4804101600068069400F44A
:1028800080401190022000900120039010200490BD
:102890006846FFF74FF80F20CDE90C040E940F9413
:1028A00000210CA81094FEF755FF12B010BD0000D7
:1028B00040380240007000401048016841F4700147
:1028C00001600F48016841F0010101600C4A0021DC
:1028D0000832116002680B4B1A400260031D0A4A5D
:1028E0001A60026822F48022026005480C30016000
:1028F00002495806803908607047000088ED00E002
:1029000000380240FFFFF6FE10300024F0B50268E8
:10291000254C264D264E274F274B4FF0804CA0428A
:1029200009D0604507D0A84205D0B04203D0B842D4
:1029300001D0984204D122F0700E4A6842EA0E0299
:10294000A0421BD0604519D0A84217D0B04215D084
:10295000B84213D0984211D0184DA8420ED0184D4D
:10296000A8420BD0174DA84208D0174DA84205D059
:10297000164DA84202D0164DA84203D122F440754C
:10298000CA682A434D6922F080022A4302608A689D
:10299000C2620A688262A04201D0984201D10969EC
:1029A000016301214161F0BD0000014000040040CD
:1029B00000080040000C00400004014000400140BD
:1029C000004401400048014000180040001C004045
:1029D0000020004010B501F01F030121046A994056
:1029E0008C430462016A9A401143016210BD0000E9
:1029F000F0B5026A22F001020262036A4268846949
:102A0000124E24F073050C682C4323F002058B68EA
:102A10002B430D4DA84201D0B04205D123F0080749
:102A2000CB683B4323F00403A84201D0B04205D158
:102A30004D6922F4407215438A692A4342608461D9
:102A4000496841630362F0BD000001400004014099
:102A5000F0B5026A22F010020262026A43688469D9
:102A60000D6824F4E64444EA05248D6822F020022F
:102A700042EA05120F4D104EA84201D0B04206D1D5
:102A8000CF6822F0800242EA071222F04002A842F8
:102A900001D0B04207D14D6923F4406343EA850376
:102AA0008D6943EA850343608461496881630262FA
:102AB000F0BD00000000014000040140F0B5026AD2
:102AC00022F480720262026A4368C46922F40072CE
:102AD00024F073050C68124E2C438D6842EA0522DF
:102AE0000E4DA84201D0B04206D1CF6822F4006258
:102AF00042EA072222F48062A84201D0B04207D104
:102B00004D6923F4405343EA05138D6943EA0513E5
:102B10004360C4614968C1630262F0BD00000140C6
:102B20000004014030B5026A22F480520262046A55
:102B30004268C3690D6823F4E64343EA05238D68C0
:102B400024F4005444EA0534084DA84202D0084D4C
:102B5000A84204D14D6922F4804242EA85124260C3
:102B6000C36149680164046230BD00000000014097
:102B70000004014010B5806B0021C185C184FFF7BE
:102B8000F1F910BD0168CA6822F49072CA60016848
:102B90004A6922F001024A61202180F83A10704708
:102BA00010B590F83A10222901D0022010BD81689A
:102BB000B1F5805F11D00169002901681FD0496813
:102BC00001F07F03816A4A1C82620B70C18D491E2D
:102BD0000904090CC18518D02BE00269816A002A1A
:102BE0000268526805D0D2B20A80816A491C8162AB
:102BF000ECE7C2F308020A80816A891CF7E74A6899
:102C0000816A4B1C83620A70E0E70168CA6822F09F
:102C10002002CA600168CA6822F48072CA60016832
:102C20004A6922F001024A61202180F83A10FFF738
:102C3000BBFA002010BD00002DE9F04104460068F9
:102C40000169E26821F44051114301612169A068E2
:102C5000E26908436169114322680843D16849F277
:102C60000C6399430143D16020684169A26921F452
:102C7000407111434161E2696425B2F5004F974804
:102C8000974922684FF032083FD08A4201D08242F1
:102C90007CD1FEF70DFE00EBC00101EB0010616876
:102CA0008900B0FBF1F6FEF703FE00EBC00101EB7B
:102CB000001061688900B0FBF1F0B0FBF5F06FF037
:102CC0001801484306EB800108EB0110B0FBF5F05A
:102CD00000F0F006FEF7ECFD00EBC00101EB001088
:102CE00061688900B0FBF1F0B0FBF5F006EB00166F
:102CF000FEF7DEFD00EBC00101EB0010616889000A
:102D0000B0FBF1F7FEF7D4FDD2E08A4201D0824257
:102D10003DD1FEF7CDFD00EBC00101EB0010616875
:102D20004900B0FBF1F0B0FBF5F00601FEF7C0FD85
:102D300000EBC00101EB001061684900B0FBF1F746
:102D4000FEF7B6FD00EBC00101EB00106168490021
:102D5000B0FBF1F0B0FBF5F06FF01801484307EB62
:102D6000800108EBC100B0FBF5F000F0F80006EBC5
:102D70004006FEF79DFD00EBC00101EB001061680D
:102D80004900B0FBF1F7FEF793FD3CE055E0FEF79C
:102D90007FFD00EBC00101EB001061684900B0FB52
:102DA000F1F0B0FBF5F00601FEF772FD00EBC0019B
:102DB00001EB001061684900B0FBF1F7FEF768FD18
:102DC00000EBC00101EB001061684900B0FBF1F0BD
:102DD000B0FBF5F06FF01801484307EB800108EBFA
:102DE000C100B0FBF5F000F0F80006EB4006FEF77E
:102DF0004FFD00EBC00101EB001061684900B0FB22
:102E0000F1F7FEF745FD00EBC00101EB0010616832
:102E10004900B0FBF1F0B0FBF5F06FF0180148434A
:102E200007EB800108EBC100B0FBF5F000F00700F4
:102E3000216830448860BDE8F081FEF729FD00EB91
:102E4000C00101EB001061688900B0FBF1F6FEF7EC
:102E50001FFD00EBC00101EB001061688900B0FBB1
:102E6000F1F0B0FBF5F06FF01801484306EB80017C
:102E700008EB0110B0FBF5F000F0F006FEF708FDDE
:102E800000EBC00101EB001061688900B0FBF1F0BC
:102E9000B0FBF5F006EB0016FEF7FAFC00EBC00104
:102EA00001EB001061688900B0FBF1F7FEF7F0FC60
:102EB00000EBC00101EB001061688900B0FBF1F08C
:102EC000B0FBF5F06FF01801484307EB800108EB09
:102ED0000110B0FBF5F000F00F00A9E7001401406D
:102EE0000010014090F83910212901D002207047CC
:102EF0008168B1F5805F016A0BD04A1C02620268EA
:102F000009785160C18C491E0904090CC1840ED096
:102F100017E009880268C1F30801516001690029BE
:102F2000016A02D0491C0162ECE7891CFBE70168D9
:102F3000CA6822F08002CA600068C16841F040019E
:102F4000C1600020704700000148FFF70DB8000085
:102F5000282A0020FFF7A4FB0FB4054B10B503A9E6
:102F6000044A029800F040F810BC5DF814FB000021
:102F700051350008540000200FB4084B10B504A9C7
:102F800002AA039800F030F8044602A9002000F0DD
:102F9000CCF9204610BC5DF814FB00002B33000870
:102FA0000907090E002804DB00F1E02080F8001476
:102FB000704700F00F0000F1E02080F8141D70470A
:102FC000004870477C00002002E008C8121F08C1BA
:102FD000002AFAD170477047002001E001C1121F9A
:102FE000002AFBD1704700002DE9FF4F8BB08846C7
:102FF0000546002606E025280BD0DDE90D12904796
:103000006D1C761C28780028F5D10FB03046BDE83D
:10301000F08F0024A146A2460122AE4900E00443FD
:1030200015F8013F203B02FA03F00842F7D1287857
:103030002A2810D06FF02F022878A0F1300109293A
:1030400015D809EB890102EB410144F0020400EBC1
:1030500001096D1CF0E758F8041B5FEA010903D56C
:1030600044F40054C9F1000944F002046D1C2878AE
:103070002E2817D115F8010F44F004042A280ED089
:103080006FF02F022878A0F1300109290AD80AEB45
:103090008A0102EB410100EB010A6D1CF2E758F8CE
:1030A00004AB6D1C28786C280FD006DC4C2817D098
:1030B00068280DD06A2814D104E0742810D07A282A
:1030C0000FD10DE044F400140AE044F4801401E050
:1030D00044F440146978814202D104F580146D1CD7
:1030E0006D1C2878692865D006DC00288DD06328FF
:1030F00027D0642806D15DE06E2808D073282AD036
:10310000752877D0DDE90D129047761CE0E0C4F316
:103110000250022809D003280DD0D8F80010042846
:103120000DD00E6008F10408D2E0D8F80010F217B4
:10313000C1E90062F6E7D8F800100E80F2E70E70E1
:10314000F0E718F8041B8DF8001000208DF801003E
:10315000EB46012003E058F804BB4FF0FF30610755
:103160004FF0000701D40AE07F1C57450DDA874273
:10317000FADB1BF807100029F6D106E07F1C874216
:10318000FCDB1BF807100029F8D1DDE90D23A9EBC2
:1031900007008146214600F0B1F83044C61904E02A
:1031A000DDE90D121BF8010B90477F1EF8D2214676
:1031B000484688E058F8040BC4F302514FF00A0B5C
:1031C000032900D100B2042900D140B2002802DA5C
:1031D00040422D2102E0210505D52B218DF8241038
:1031E000012104E006E0E10710D02021F6E708AF56
:1031F000089113E058F8040BC4F302514FF00A0B86
:10320000032900D180B2042900D1C0B20021EEE729
:103210005946FDF796F8303107F8011D0028F7D11F
:10322000ADEB070000F1200B600702D524F48034D9
:1032300001E04FF0010ADA4502DDAAEB0B0000E0E5
:103240000020824600EB0B0108980144A9EB010025
:103250000A90E00306D4DDE90D2321460A9800F028
:103260004DF806444FF0000908E009A911F80900DB
:10327000DDE90D12904709F10109761C089989458D
:10328000F3DBE0030CD5DDE90D2321460A9800F0BD
:1032900035F8064404E0DDE90D1230209047761C35
:1032A000BAF10001AAF1010AF5DC05E0DDE90D1231
:1032B00017F8010B9047761CBBF10001ABF1010B35
:1032C000F4DC0A982146DDE90D2300F005F80644F8
:1032D0006D1C97E6092801002DE9F0410446002500
:1032E0001E461746880404D405E039462020B0471E
:1032F0006D1C641EF9D52846BDE8F0812DE9F0412A
:10330000044600251E469046C80301D5302700E03C
:103310002027880404D505E041463846B0476D1C97
:10332000641EF9D52846BDE8F0810A68531C0B607D
:10333000107070472DE9F04105469EB016460C46C8
:1033400057A0FFF709FE32462146284600F028FB29
:10335000012257A13046FCF7B6FF564C4FF47A785D
:103360004FF0010258B154A13046FCF7ACFFE8B36E
:10337000012252A13046FCF7A6FFC0B370E0504EC8
:103380004FF4006529463046FDF7B8FF3D22494914
:103390000DA8FCF746FF14F83D0F8DF871000127CA
:1033A000302211A968460C97FCF73BFF0DF1340C55
:1033B0009CE80F0000F0A2F94046FDF7A9FE3D226F
:1033C0003C490DA8FCF72DFF20788DF871003022C4
:1033D00011A968460C97FCF724FF0DAF97E80F0082
:1033E00000F082F800222946304601E003E00DE0BB
:1033F000FDF784FF34E03D222E490DA8FCF711FFB4
:1034000014F83D0F8DF87100022509E03D2229498D
:103410000DA8FCF706FF14F83D0F8DF87100032589
:10342000302211A968460C95FCF7FBFE0DAE96E81C
:103430000F0000F063F94046FDF76AFE3D221D498A
:103440000DA8FCF7EEFE20788DF87100302211A94E
:1034500068460C95FCF7E5FE96E80F0000F044F88E
:10346000184D00244FF4FA7601212846FDF73FFF5E
:103470003046FDF74DFE641C082CF5DB0121284683
:10348000FDF735FF4046FDF743FE002201212846A7
:10349000FDF734FF1EB00C48BDE8F04100F04EBB14
:1034A000414C41524D2043414C44490A0000000028
:1034B00031000000E8290020320000003300000045
:1034C000000C024000040240CC1D002010B540F268
:1034D000DC510348FCF7BEFE02490020C86110BD64
:1034E00080000020000000200FB46E20109A012AF6
:1034F00007D06421022A07D0032A08D0042A0BD15E
:1035000008E00099486307E00098816304E00098B0
:10351000C16301E0009908644FF47A7004B0FDF7CC
:10352000F7BD000031B5084D6C68FEF7ABF90749EF
:10353000B0FBF1F000994843009068680099001BC7
:103540008842FAD338BD0000001000E040420F006E
:1035500008490968C90706D0064980390968CA07B9
:103560004FF0604101D1704700BF0A68002AFBD0CC
:1035700008707047800E00E00FB410B51298012853
:103580000CD002280CD003280CD0042803D10C2125
:1035900002A8FEF7C5FC10BC5DF814FB0021F7E79C
:1035A0000421F5E70821F3E79EB0FEF741F8FFF7A5
:1035B0004BF9FEF7B9FFFFF719F8454843490024D6
:1035C00001604FF41651C0E901140C21C460C0E938
:1035D00004418461C461FEF74FFD3D483D49943884
:1035E00001603D49C0E901144FF48041C0E9034145
:1035F00044618461C4610462FDF78CFE0122374995
:103600003348FEF7A7FD00F00BF9FDF747F9FCF78B
:10361000ABFF2F4E0124403E11AD2D493D224039D4
:103620000DA8FCF7FEFD96F83D008DF871003022E4
:10363000294668460C94FCF7F4FD0DF1340C9CE827
:103640000F00FFF799FF641C052CE6DBDFF8808094
:10365000234D08F1400808F1200600BFFDF72EFABF
:103660001B484030FDF73CF898F8061000911848C8
:1036700098F8053098F804201AA14A30FFF77CFC2E
:103680005FF0000456F82400E0B955F82400FCF778
:103690004BFEB8B10E484A30FCF746FE074655F8D7
:1036A0002400FCF741FE87420CDB124855F8241039
:1036B00050F82420104850F82400FFF73BFE01206A
:1036C00046F82400641C042CDCDBC7E700440040FF
:1036D000282A002000540040A0860100000000209D
:1036E000241F002025303275253032752530327583
:1036F00000000000441F0020141F00200FB45520BC
:10370000109A012A07D04B21022A07D0032A08D099
:10371000042A0BD108E00099486307E00098816310
:1037200004E00098C16301E0009908644FF47A70E6
:1037300004B0FDF7EDBC000000B585B04FF480503B
:1037400000900020019002200290039069460248F8
:10375000FDF7F0FC05B000BD0004024010B50020EC
:1037600000F0CAFA0A21084600F03CFB194C01237C
:1037700019A0D4E9001200F0C7FB14210A2000F0C0
:1037800031FBD4E90012012317A000F0BDFB1E217C
:103790000A2000F027FBD4E90012012314A000F056
:1037A000B3FB28210A2000F01DFBD4E900120123FD
:1037B00013A000F0A9FB32210A2000F013FBD4E98A
:1037C0000012012311A000F09FFBBDE8104000F0A3
:1037D0000FBB000058000020436F6E6E6563746578
:1037E0006420546F00000000574946492100000042
:1037F00043616E20436F6E6E65637420546F0000EA
:103800004465766963652057697468004150204FAC
:103810007220537461742E204D6F646500000000A7
:1038200070B500F079FA002000F066FA002114204B
:1038300000F0D8FA384C012338A0D4E9001200F087
:1038400063FB0A21142000F0CDFAD4E90012012311
:1038500036A000F059FB1E21142000F0C3FAD4E971
:103860000012012334A000F04FFB2821142000F0A7
:10387000B9FAD4E90012012332A000F045FB00F0B0
:10388000B7FA4FF47A752846FDF742FC002000F0A5
:1038900033FA0021142000F0A5FAD4E90012012324
:1038A0002BA000F031FB0A21142000F09BFAD4E990
:1038B000001201232AA000F027FB19210A2000F0A2
:1038C00091FAD4E90012012327A000F01DFB282162
:1038D000142000F087FAD4E90012012327A000F099
:1038E00013FB00F085FA2846FDF712FC002000F0DB
:1038F00003FA1E21142000F075FAD4E90012012306
:1039000021A000F001FB00F073FA23480168BDE834
:1039100070402248FCF7A9BC580000204765627A35
:103920006520546563686E6963616C00556E6976E5
:103930006572736974790000456C656374726F6EAB
:1039400069637300456E67696E656572696E6700CD
:10395000456D6265646465642053797374656D00B8
:1039600044657369676E00005468652046696E613E
:103970006C2050726F6A6563740000002D20323035
:103980003139202D00000000496E697469616C694D
:103990007A696E672E2E2E00100000203025002040
:1039A0002DE9F041054616460F46002000F0A4F927
:1039B0000521084600F016FA234C012323A0D4E980
:1039C000001200F0A1FA1421052000F00BFAD4E94E
:1039D0000012012320A000F097FA1421462000F0E5
:1039E00001FAD4E900120123284600F08DFA2321C0
:1039F000052000F0F7F9D4E90012012319A000F026
:103A000083FA2321282000F0EDF9D4E900120123E4
:103A1000384600F079FA3221052000F0E3F9D4E9C4
:103A20000012012311A000F06FFA32213C2000F0B7
:103A3000D9F9D4E900120123304600F065FABDE857
:103A4000F04100F0D5B900005800002054696D65C0
:103A500020497320555021004D65646963696E6586
:103A60003A00000054696D653A00000053656374C4
:103A7000696F6E3A0000000010B5002000F03CF9BC
:103A80000A21084600F0AEF9194C012319A0D4E927
:103A9000001200F039FA14210F2000F0A3F9D4E944
:103AA0000012012317A000F02FFA1E210A2000F0B7
:103AB00099F9D4E90012012315A000F025FA282174
:103AC0000F2000F08FF9D4E90012012314A000F0B8
:103AD0001BFA32210F2000F085F9D4E900120123EE
:103AE00012A000F011FABDE8104000F081B900000A
:103AF000580000204E6F7420436F6E6E65637465CE
:103B000064000000546F205749464921000000001E
:103B100043616E20436F6E6E65637420546F0000C6
:103B20004465766963652057697468004F6E6C79E7
:103B3000204150204D6F64650000000070B50546BF
:103B4000002000F0D9F80A21084600F04BF9234C78
:103B5000012323A0D4E9001200F0D6F91E210A2087
:103B600000F040F9D4E90012012322A000F0CCF9C2
:103B70001E21322000F036F920484FF00103006882
:103B8000012813D0D4E900121DA000F0BDF93221A4
:103B90000A2000F027F9D4E9001201231BA000BF7E
:103BA00000F0B2F9BDE8704000F022B9D4E900128B
:103BB000184800F0A9F93221052000F013F9D4E9E2
:103BC0000012012314A000F09FF93221192000F007
:103BD00009F9D4E9001201232846E1E75800002042
:103BE0004465766963652049732052656164792173
:103BF00000000000574946493A00000040000020FC
:103C00004E6F7420436F6E6E656374004D6F646514
:103C10003A4150003025002049503A0010B50020AC
:103C200000F06AF80A21142000F0DCF8144C01239B
:103C300014A0D4E9001200F067F91421232000F049
:103C4000D1F8D4E90012012311A000F05DF9282178
:103C5000142000F0C7F8D4E90012012310A000F0EE
:103C600053F93221232000F0BDF8D4E900120123DA
:103C70000EA000F049F9BDE8104000F0B9B800000E
:103C80005800002057494649205741530000000082
:103C9000444953434F4E4E45435445442100000090
:103CA000547279696E6720546F0000005265636F2B
:103CB0006E6E65637400000070B5802813D24029D1
:103CC00011D20B4B012401F007051E79AC40094BC2
:103CD000C90800EBC1100EB132B101E0012A03D0D6
:103CE000195CA143195470BD195C2143FAE7000027
:103CF000600000209425002010B5064A00214FF4F2
:103D0000806328B1FF245454491C9942F9D310BD53
:103D10000024F8E79425002010B56420FDF7F8F999
:103D2000AE2000F0CFF8202000F0CCF8102000F0FA
:103D3000C9F8B02000F0C6F8C82000F0C3F8002091
:103D400000F0C0F8102000F0BDF8402000F0BAF8F4
:103D5000812000F0B7F8FF2000F0B4F8A12000F0B7
:103D6000B1F8A62000F0AEF8A82000F0ABF83F2094
:103D700000F0A8F8A42000F0A5F8D32000F0A2F8E5
:103D8000002000F09FF8D52000F09CF8F02000F013
:103D900099F8D92000F096F8222000F093F8DA2064
:103DA00000F090F8122000F08DF8DB2000F08AF887
:103DB000202000F087F88D2000F084F8142000F017
:103DC00081F8AF2000F07EF80020FFF795FF00F0AB
:103DD0000FF803480021018041800121417110BD8D
:103DE00060000020014A1080518070476000002070
:103DF00070B50C4D002400BF04F1B000C0B200F05B
:103E000061F8002000F05EF8102000F05BF805EB90
:103E1000C410802100F068F8641CE4B2082CEBD3D5
:103E200070BD0000942500202DE9FF4F83462448F3
:103E30009246CEB202883244802A06D28146408819
:103E4000C1F307273844402803D3002004B0BDE85D
:103E5000F08F002528E000BFABF1200010FB0750D9
:103E60003AF8108000241CE008FA04F0000409D598
:103E700099F8021099F8000029442044C9B2C0B250
:103E8000039A0BE00398C0B15FF0000299F80210AA
:103E900099F8000029442044C9B2C0B2FFF70CFFD2
:103EA000641CA642E0D86D1CAF42D5D8B9F800100A
:103EB00058463144A9F80010C8E70122E6E700009F
:103EC0006000002001B584B001214FF0FF3204A84A
:103ED0008DE807000B46002278210248FDF7D4FA4E
:103EE00005B000BD942900200EB54FF0FF3289B215
:103EF0008DE807000123402278210248FDF7C4FA2B
:103F00000EBD000094290020F0B51D460E46174650
:103F100004460AE02B463A463146FFF785FF2178F2
:103F2000884201D0C8B2F0BD641C20780028F1D1CD
:103F3000C0B2F0BD00B585B04FF4805000900120B4
:103F400001900220039069460248FDF7F3F805B09E
:103F500000BD00000004024000000000000000005E
:103F60000000000000000000000000000010001031
:103F700000100010001000100000001000000000F1
:103F800000280028002800000000000000000000B9
:103F90000000000000240024007C00240048007C75
:103FA000004800480000000000380054005000386D
:103FB0000014005400540038001000000020005489
:103FC00000580030002800540014000800000000D1
:103FD0000010002800280010003400480048003479
:103FE00000000000001000100010000000000000A1
:103FF0000000000000000000000800100020002069
:1040000000200020002000200010000800200010E8
:104010000008000800080008000800080010002040
:104020000010003800100028000000000000000010
:10403000000000000000000000100010007C0010D4
:104040000010000000000000000000000000000060
:104050000000000000000010001000100000000030
:104060000000000000000038000000000000000018
:104070000000000000000000000000000000001030
:1040800000000000000800080010001000100010E0
:1040900000200020000000000038004400440054CC
:1040A00000440044004400380000000000100030CC
:1040B0000050001000100010001000100000000060
:1040C0000038004400440004000800100020007C78
:1040D0000000000000380044000400180004000440
:1040E00000440038000000000008001800280028E4
:1040F0000048007C0008000800000000007C004030
:104100000040007800040004004400380000000073
:104110000038004400400078004400440044003867
:1041200000000000007C00040008001000100020C7
:104130000020002000000000003800440044003847
:1041400000440044004400380000000000380044EF
:1041500000440044003C000400440038000000001B
:10416000000000000010000000000000000000102F
:10417000000000000000000000000010000000002F
:10418000000000100010001000000000000C0030C3
:1041900000400030000C00000000000000000000A3
:1041A0000000007C0000007C000000000000000017
:1041B000000000000060001800040018006000000B
:1041C0000000000000380044000400080010001047
:1041D000000000100000000000380044004C0054B3
:1041E000005C004000400038000000000010002883
:1041F000002800280028007C004400440000000043
:1042000000780044004400780044004400440078F2
:104210000000000000380044004000400040004022
:1042200000440038000000000070004800440044D2
:10423000004400440048007000000000007C004082
:104240000040007C004000400040007C0000000076
:10425000007C0040004000780040004000400040EA
:10426000000000000038004400400040005C0044B2
:104270000044003800000000004400440044007C7A
:1042800000440044004400440000000000380010D6
:104290000010001000100010001000380000000096
:1042A000000400040004000400040004004400387A
:1042B000000000000044004800500060005000482A
:1042C0000048004400000000004000400040004062
:1042D000004000400040007C000000000044006CF2
:1042E000006C0054004400440044004400000000FE
:1042F00000440064006400540054004C004C00442E
:104300000000000000380044004400440044004421
:1043100000440038000000000078004400440044DD
:1043200000780040004000400000000000380044D9
:1043300000440044004400440054003800040000DD
:1043400000780044004400440078004800480044DD
:104350000000000000380044004000300008000465
:104360000044003800000000007C00100010001025
:104370000010001000100010000000000044004475
:1043800000440044004400440044003800000000A1
:1043900000440044004400280028002800100010B9
:1043A0000000000000440044005400540054006C1D
:1043B0000028002800000000004400280028001009
:1043C00000100028002800440000000000440044C1
:1043D000002800280010001000100010000000004D
:1043E000007C000400080010001000200040007C49
:1043F0000000000000180010001000100010001055
:104400000010001000100018002000200010001004
:10441000001000100008000800000000003000102C
:1044200000100010001000100010001000100030EC
:1044300000100028002800440000000000000000D8
:10444000000000000000000000000000000000006C
:1044500000000000000000FE00200010000000002E
:10446000000000000000000000000000000000004C
:1044700000380044003C0044004C003400000000C0
:1044800000400040005800640044004400640058AC
:104490000000000000000000003800440040004020
:1044A0000044003800000000000400040034004C08
:1044B00000440044004C00340000000000000000F4
:1044C00000380044007C0040004400380000000038
:1044D000000C0010007C00100010001000100010F4
:1044E00000000000000000000034004C00440044C4
:1044F000004C003400040078004000400058006484
:10450000004400440044004400000000001000008B
:1045100000700010001000100010001000000000DB
:1045200000100000007000100010001000100010BB
:10453000001000E0004000400048005000600050C3
:10454000004800440000000000700010001000103F
:10455000001000100010001000000000000000001B
:10456000007800540054005400540054000000002F
:10457000000000000058006400440044004400446F
:104580000000000000000000003800440044004427
:1045900000440038000000000000000000580064E3
:1045A0000044004400640058004000400000000047
:1045B0000034004C00440044004C0034000400046B
:1045C000000000000058006400400040004000402F
:1045D0000000000000000000003800440030000827
:1045E0000044003800000000002000200078002077
:1045F0000020002000200018000000000000000043
:104600000044004400440044004C0034000000001A
:10461000000000000044004400280028002800108A
:104620000000000000000000005400540054006C22
:1046300000280028000000000000000000440028BE
:1046400000100010002800440000000000000000DE
:1046500000440044002800280010001000100060F2
:1046600000000000007C0008001000200040007CDA
:1046700000000000001800100010001000200020B2
:1046800000100010001000180010001000100010A2
:10469000001000100010001000100010003000107A
:1046A000001000100008000800100010001000307A
:1046B0000000000000000074004C0000000000003A
:1046C00000000000000000000000000001020304E0
:1046D00006070809000000000102030400404040F2
:1046E00040404040404041414141414040404040C5
:1046F0004040404040404040404040404005020271
:10470000020202020202020202020202022020202F
:10471000202020202020200202020202020290908B
:104720009090909010101010101010101010101089
:1047300010101010101010100202020202028888DD
:1047400088888888080808080808080808080808E9
:1047500008080808080808080202020240000000D1
:10476000DD460008485454502F312E31203230306D
:10477000204F4B0D0A436F6E74656E742D54797023
:10478000653A20746578742F68746D6C0D0A436FF8
:104790006E6E656374696F6E3A20636C6F73650D3E
:1047A0000A0D0A09093C21444F43545950452068D9
:1047B000746D6C3E09093C68746D6C3E3C626F64BC
:1047C000793E3C63656E7465723E53544D333220BE
:1047D000486173204265656E205265736574213CA3
:1047E0002F63656E7465723E3C2F626F64793E3C48
:1047F0002F68746D6C3E0D0A09090000485454502E
:104800002F312E3120323030204F4B0D0A436F6E46
:1048100074656E742D547970653A20746578742FC0
:1048200068746D6C0D0A436F6E6E656374696F6EAC
:104830003A20636C6F73650D0A0D0A09093C214427
:104840004F43545950452068746D6C3E09093C68CB
:10485000746D6C3E3C626F64793E3C63656E74655A
:10486000723E3C68323E3C623E53756363657373CF
:1048700066756C213C2F623E3C62723E3C2F683272
:104880003E496E666F6D6174696F6E20486173207A
:104890004265656E2053656E74213C2F63656E74AE
:1048A00065723E3C2F626F64793E3C2F68746D6C7C
:1048B0003E0D0A0909000000485454502F312E3192
:1048C00020323030204F4B0D0A436F6E74656E748A
:1048D0002D547970653A20746578742F68746D6C06
:1048E0000D0A436F6E6E656374696F6E3A20636C78
:1048F0006F73650D0A0D0A093C21444F435459500A
:10490000452068746D6C3E20093C68746D6C3E20D7
:10491000093C626F64793E20093C626F64792062D1
:1049200067636F6C6F72203D222363636439666630
:10493000223E20093C7469746C653E455350383200
:104940003636202D20506C6561736520456E746588
:10495000722053534944202620506173733C2F74B6
:1049600069746C653E20093C6865616465723E202F
:10497000093C63656E7465723E2020203C68323EBF
:10498000203C623E4765627A6520546563686E69C3
:1049900063616C20556E69766572736974793C2F1A
:1049A000623E203C2F68323E20093C68333E203C6A
:1049B000623E4465706172746D656E74204F66204E
:1049C000456C656374726F6E69637320456E6769C9
:1049D0006E656572696E673C2F623E203C2F6833BE
:1049E0003E20093C68333E203C623E456D62656472
:1049F0006465642053797374656D204465736967D9
:104A00006E3C2F623E3C2F68333E20093C68333EAB
:104A1000203C623E5468652046696E616C2050728D
:104A20006F6A6563743C2F623E203C2F68333E20E2
:104A300009266E6273703B09266E6273703B09260D
:104A40006E6273703B09266E6273703B09266E625C
:104A500073703B09266E6273703B093C68333E20DD
:104A60003C623E3C7370616E207374796C653D22CC
:104A7000636F6C6F723A20236666303030303B22B1
:104A80003E57494649204E6574776F726B204361EB
:104A90006E204E6F742046696E64204F72204E6FF8
:104AA00020436F6E6E656374696F6E213C2F737067
:104AB000616E3E3C2F623E203C2F68333E20093C15
:104AC00068333E203C623E3C7370616E20737479A3
:104AD0006C653D22636F6C6F723A202366663030DE
:104AE00030303B223E506C6561736520456E7465C5
:104AF0007220546865205353494420416E6420500D
:104B0000617373776F726420546F20436F6E6E65AC
:104B100063742E3C2F7370616E3E3C2F623E203CCE
:104B20002F68333E3C2F63656E7465723E20093CEE
:104B30002F6865616465723E2009266E6273703B62
:104B4000093C666F726D20616374696F6E203D2051
:104B50002222206D6574686F64203D202267657491
:104B6000223E20093C63656E7465723E3C7461624E
:104B70006C6520626F72646572203D202231223E96
:104B80003C7370616E207374796C65203D202263E4
:104B90006F6C6F72203A20233030303030303B223F
:104BA0003E3C74723E3C74643E5749464920535320
:104BB0004944203A20266E62737020266E6273701C
:104BC00020266E62737020266E627370203C2F74F4
:104BD000643E3C74643E3C696E70757420747970F8
:104BE00065203D20227465787422206E616D6520F9
:104BF0003D202273736964222076616C7565203DC7
:104C00002022223E3C62723E3C2F74643E3C2F7454
:104C1000723E3C2F63656E7465723E20093C63658D
:104C20006E7465723E3C74723E3C74643E574946F5
:104C3000492050617373776F7264203A203C2F745F
:104C4000643E3C74643E3C696E7075742074797087
:104C500065203D20227465787422206E616D652088
:104C60003D202270617373222076616C7565203D52
:104C70002022223E3C62723E3C2F74643E3C2F74E4
:104C8000723E3C2F63656E7465723E20093C2F7442
:104C9000626F64793E20093C2F7461626C653E202E
:104CA000093C62723E3C63656E7465723E3C696E9F
:104CB0007075742074797065203D20227375626D63
:104CC0006974222076616C7565203D2022536176DF
:104CD00065202620436F6E6E656374223E3C2F6311
:104CE000656E7465723E20093C62723E3C62723EA3
:104CF00020093C2F666F726D3E20093C63656E741F
:104D000065723E20203C68333E203C623E323031AA
:104D10003920536572686174205345464552202DF1
:104D2000205361696D204275C49F726168616E2075
:104D3000C3965A54C39C524B2E3C2F623E3C2F6864
:104D4000333E3C2F63656E7465723E20093C63659B
:104D50006E7465723E20203C68333E203C623E43C8
:104D60006F7079726967687420416C6C205265734A
:104D700065727665642E3C2F623E3C2F68333E3C64
:104D80002F63656E7465723E20093C2F626F6479F3
:104D90003E20093C2F68746D6C3E20090000000025
:104DA0002D7472776F726C64313939363230303924
:104DB0002D0000005365726861743300000000002C
:104DC000E04D00080000002080000000C82F00080F
:104DD000604E000880000020182E0000D82F000828
:104DE00000000000FC47000864470008B8480008BD
:104DF000B44D0008A04D0008BC4D000800000000A4
:104E000000000000000000000000000000000000A2
:104E10000000000000000000000000000000000092
:104E20000000000000000000000000000000000082
:104E30000000000000000000070A0000583F0008C2
:104E40000000000000000000010000001000000051
:104E5000000000000024F40000000000000000003A
:040000050800018965
:00000001FF
